:1000000045C0000060C000005EC000005CC0000091
:100010005AC0000058C0000056C0000054C0000084
:1000200052C0000050C000004EC000004CC0000094
:100030004AC0000048C0000046C0000044C00000A4
:1000400042C0000040C000003EC000003CC00000B4
:100050003AC0000038C0000036C0000034C00000C4
:1000600032C0000030C000002EC000002CC00000D4
:100070002AC0000028C0000026C0000024C00000E4
:1000800022C0000020C000001EC0000011241FBEBE
:10009000CFEFD0E1DEBFCDBF11E0A0E0B1E0EEE2F6
:1000A000F4E000E00BBF02C007900D92A43CB10742
:1000B000D9F721E0A4ECB1E001C01D92A43CB20745
:1000C000E1F7D6D0B2C19CCF1092710080E280934C
:1000D0007000089584EA80937400E4E7F0E0808182
:1000E0008823ECF708958093730084E8809374006C
:1000F000E4E7F0E080818823ECF7089518161906EC
:100100006CF420E030E0EFECF7E03197F1F700C05D
:1001100000002F5F3F4F28173907A9F708950F9365
:100120001F93CF93DF93C0E004E710E0D4E9D2DF60
:1001300080EED9DF8C2FD7DF80E0D5DFF801D083C8
:10014000CE5FC031A1F7DF91CF911F910F9108953C
:100150001F93CF93DF93BEDF80EEC5DF81E2C3DF65
:10016000C4E7D0E014E91883B5DF80EEBCDF80EA95
:10017000BADF1883AFDF80EEB6DF83EEB4DF18831B
:10018000A9DF80EEB0DF81E8AEDF1883DF91CF9189
:100190001F9108955F926F927F928F929F92AF927C
:1001A000BF92CF92DF92EF92FF920F931F93CF9364
:1001B000DF93EB01CC0FDD1FC80FD91F912C0F2E41
:1001C000F4E76F2E712CF02D0F2EF4E98F2EF02D09
:1001D0001881598022967EDF80EE85DF892D83DFAE
:1001E000212F952D990F990B6894AA24A1F8689452
:1001F000BB24B1F86894CC24C1F86894DD24D1F80C
:100200006894EE24E1F8F12C00E010E0352D492F40
:10021000592F692F792F892F4AD02071307242745B
:10022000547868707170AA24AA940F2EF3E0BF2E40
:10023000F02DC12CD12CE12C80E090E089D0822FD0
:1002400052DFF301808293949394F0E19F12C0CF28
:10025000DF91CF911F910F91FF90EF90DF90CF90A2
:10026000BF90AF909F908F907F906F905F90089518
:100270002BDF6EDF54DF8AEF90E040DF50DF60E07D
:1002800070E080E091E086DFC1E0D0E000E010E0C7
:100290008AEF90E033DF43DFBE0180E091E07ADF58
:1002A0002196CB35D105A4F3C02FD12FF1CFDF9309
:1002B000CF931F930F939A9DF02D219FF00D8B9D4F
:1002C000F00D8A9DE02DF10D039FF00D029FE00DD2
:1002D000F11D4E9DE00DF11D5E9DF00D4F9DF00D49
:1002E0007F936F93BF92AF925F934F93D5018ED060
:1002F0008B01AC01D7018AD0EB01E80FF91FD601C1
:100300001FD02F913F91D60181D0C60FD71FE81F74
:10031000F91FAF91BF9114D02F913F9177D0C60FA5
:10032000D71FE81FF91FD60171D0E60FF71F9801FC
:10033000BE01CF0111240F911F91CF91DF9108953C
:1003400065D0460F571FC81FD91F08F4319608956E
:10035000689401C0E8948F929F92CF93DF9305D069
:10036000DF91CF919F908F90089588249924F40174
:10037000E401B0E49F93AA279A158B049C04ED0531
:10038000FE05CF05D007A10798F4AD2FDC2FCF2FA6
:10039000FE2FE92D982C892E982F872F762F652FE9
:1003A000542F432F322F2227B85031F7BF9127C047
:1003B0001B2EBF91BB27220F331F441F551F661FE3
:1003C000771F881F991F881C991CEE1FFF1FCC1FC9
:1003D000DD1FAA1FBB1F8A149B04EC05FD05CE057B
:1003E000DF05A007B10748F08A189B08EC09FD0952
:1003F000CE09DF09A00BB10B21601A94E1F62EF4AF
:100400009401AF01BE01CD01000C0895A29FB0017F
:10041000B39FC001A39F700D811D1124911DB29F38
:0E042000700D811D1124911D0895F894FFCFD9
:10042E0000003C0066006E007600660066003C0030
:10043E000000000000001800180038001800180016
:10044E0018007E000000000000003C006600060060
:10045E000C00300060007E000000000000003C0038
:10046E00660006001C00060066003C00000000004E
:10047E0000000C001C002C004C007E000C000C0038
:10048E000000000000007E0060007C0006000600F8
:10049E0066003C000000000000003C0066006000AA
:1004AE007C00660066003C000000000000007E003C
:1004BE0066000C000C001800180018000000000068
:1004CE0000003C00660066003C00660066003C00D2
:1004DE000000000000003C00660066003E000600C2
:0404EE0066003C0068
:00000001FF
